:020000040800F2
:1000000000000C2071A00008213E0008233E0008DB
:10001000253E0008273E0008293E0008C1A0000830
:10002000000000000000000000000000F180000857
:100030002B3E00080000000081800008739C00082F
:10004000C1A00008C1A00008C1A00008C1A000080C
:10005000C1A00008C1A00008C1A00008C1A00008FC
:10006000C1A00008C1A00008C1A00008C1A00008EC
:10007000C1A00008C1A00008C1A00008C1A00008DC
:100080002D3E0008C1A00008C1A00008C1A00008C2
:10009000C1A00008C1A00008C1A00008C1A00008BC
:1000A000333E0008C1A00008C1A00008C1A000089C
:1000B00000000000C1A00008C1A00008C1A0000805
:1000C000C1A00008C1A00008C1A00008C1A000088C
:1000D000C1A00008C1A00008C1A00008C1A000087C
:1000E000C1A00008C1A00008C1A00008C1A000086C
:1000F000C1A00008C1A00008C1A00008C1A000085C
:10010000C1A000083D3E0008C1A00008C1A0000831
:10011000C1A00008C1A00008C1A00008C1A000083B
:10012000C1A00008C1A00008C1A00008C1A000082B
:10013000C1A00008C1A00008C1A00008C1A000081B
:10014000C1A00008C1A00008C1A00008C1A000080B
:10015000C1A00008C1A00008C1A00008C1A00008FB
:10016000C1A00008C1A00008C1A00008C1A00008EB
:10017000C1A00008C1A00008C1A00008C1A00008DB
:10018000C1A00008C1A00008C1A00008C1A00008CB
:10019000C1A00008493E0008C1A00008C1A0000895
:1001A000C1A00008C1A00008C1A00008C1A00008AB
:1001B000C1A0000800000000C1A00008C1A0000804
:1001C000C1A0000800000000C1A00008C1A00008F4
:1001D000C1A00008C1A00008C1A00008C1A000087B
:1001E000C1A00008C1A00008C1A00008C1A000086B
:1001F0000000000000000000C1A00008C1A000082D
:10020000C1A00008C1A00008C1A00008C1A000084A
:10021000C1A00008C1A00008553E0008C1A0000808
:10022000C1A00008C1A00008C1A00008C1A000082A
:08023000C1A00008000000005D
:100240000348044B834202D0034B03B11847704765
:1002500000B1042000B1042000000000064B074953
:10026000C91A891048BF0131491003D0044B0BB1A2
:1002700001481847704700BF00B1042000B10420B6
:100280000000000010B5064C237843B9FFF7D8FFF3
:10029000044B13B10448AFF300800123237010BD59
:1002A00000B3042000000000DC57020808B5054B2D
:1002B0001BB105490548AFF30080BDE80840FFF7D2
:1002C000CDBF00BF0000000004B30420DC570208CB
:1002D000704770477047704710B50446024B036083
:1002E00000F05AF9204610BD4058020810B50446E7
:1002F000FFF7F2FF20464FF43B7123F030FA20461F
:1003000010BD000010B5044600F090FA014B2046E5
:10031000236010BD4058020800F03FB97047043810
:100320007047704710B50446102123F018FA204694
:1003300010BDA0F10400F5E700228260024AC1600E
:10034000026018324260704774580208818070471A
:10035000C180704701817047418170477047704785
:1003600070477047704710B4C4880368121B8488B4
:100370005B6D091B12B25DF8044B09B21847806A25
:10038000704790F8252012B103685B6918477047E1
:100390007047000010B50446024B036000F0DDFB1F
:1003A000204610BD9C58020810B50446FFF7F2FF26
:1003B00020464FF4C36123F0D2F9204610BD00005F
:1003C00010B5044600F05AFC014B2046236010BDD6
:1003D0009C58020800F0C2BB704704387047704751
:1003E00010B50446102123F0BAF9204610BDA0F143
:1003F0000400F5E700228260024AC1600260183200
:1004000042607047D05802087047000010B504469B
:10041000024B036000F053FF204610BDF85802085D
:1004200010B50446FFF7F2FF20464FF43B7123F06E
:1004300096F9204610BD000010B5044600F076FF86
:10044000014B2046236010BDF858020800F038BF69
:10045000704704387047704710B50446102123F0E8
:100460007EF9204610BDA0F10400F5E7002282606D
:10047000024AC16002601832426070472C5902087B
:1004800000220260704770477047000010B50446B4
:10049000024B036001F0DFF8204610BD54590208FA
:1004A00010B50446FFF7F2FF20464FF43B7123F0EE
:1004B00056F9204610BD000010B5044601F002F9BF
:1004C000014B2046236010BD5459020801F0C4B806
:1004D000704704387047704710B50446102123F068
:1004E0003EF9204610BDA0F10400F5E7002282602D
:1004F000024AC1600260183242607047885902089F
:10050000704700F598730868496803C370477047DF
:1005100001F0EEBA10B504464FF4AE7123F01FF9A6
:10052000204610BD10B50446D0F85801FFF7ABFFC8
:100530002046BDE8104010F03FBE10B50446D0F88C
:10054000400158B10368DB68984738B1D4F84001DE
:1005500003689B6898470023C4F8403110BD000031
:1005600010B5044601F090FA014B2046236010BDFF
:10057000B0590208002070474FF6FF7383814FF097
:10058000FF3303621368C3611060704770477047A0
:10059000704770477047704770477047034630B4E4
:1005A000C2684468551004EB6200D20748BF625924
:1005B0009B6830BC48BFD35818470346406830B1E9
:1005C0009A681AB9D86800F0010070470120704796
:1005D00090F82D3080F85C307047014691F82C304F
:1005E000343013B162310EF036B86031FBE710B52C
:1005F0000446082123F0B3F8204610BD10B5044688
:10060000642123F0ACF8204610BD10B504462C211F
:1006100023F0A5F8204610BD10B50446102123F0A4
:100620009EF8204610BD10B504464FF43B7123F0F0
:1006300096F8204610BD0B898A89D21A4B89C98841
:1006400012B2591A09B211F049BF08B590F8283012
:100650000BB1FFF796FE08BD10B50446006B50B114
:100660000368DB68984730B1206B2146BDE8104035
:1006700003689B68184710BD90F825201AB190F8C0
:10068000242002B11860704770B50B7904460D46FE
:1006900090F82C600BB916B170BD002EFCD0B3FAE7
:1006A00083F35B0984F82C3023682046D3F88C3020
:1006B0009847236820465B699847002EECD02B7939
:1006C000012BE9D123682046BDE87040D3F888307B
:1006D000184700F51E70884208B505D110F0CAFC15
:1006E000BDE8084001F004BA08BD70B504461546DF
:1006F00003681B6B9847236829462046BDE8704075
:100700005B6B184770B50446154603689B6B9847AA
:10071000236829462046BDE87040DB6B184738B592
:1007200004461D46FFF7E1FF29462046BDF910208B
:10073000FFF7E8FF38BD70B505460B880446A0F802
:100740006030138825F8623F284613F00DFE0646F8
:10075000284613F03DFE314602462046FFF7D2FF01
:1007600023682046BDE87040D3F88C30184700005D
:100770000022C0E90122C0E90322C0E90522C0E944
:1007800007224FF480728284014A0260704700BFE2
:10079000045A020838B504460D462622002124F0EA
:1007A000ECF92046FFF7E4FF064B204623602B8838
:1007B0002946E384FF2384F828300DF04CFF2046BF
:1007C00038BD00BF007402084FF47F43F7B583853E
:1007D00040F201130025064604464FF6FF77838456
:1007E000114BC0E90155C0E90355C0E90555C0E901
:1007F00007558562056346F8343B01A93046ADF8DC
:100800000470FFF7C7FF2A4629463046A4F86070F7
:10081000A4F86270FFF769FF2046314609F089FCB1
:10082000204603B0F0BD00BFF05A02082DE9F04F9A
:1008300004460025A146262791B012F039FCBF4B93
:10084000E56349F8403B3A462946484624F095F985
:100850004846FFF78DFFBA4B4FF6FF7623644FF003
:10086000FF3384F8663004F16C0304F1980A1846EB
:100870000EA9A56604F1C4080693ADF83860FFF729
:1008800089FF0EA95046ADF838600DF035FA2946BB
:100890003A46404624F071F94046FFF769FFA94BFC
:1008A0004FF0FF32C4F8C430A74B04F5867BC4F880
:1008B000EC304FF47F03C4E94125C4F8F830A4F8C4
:1008C000F0605846C4F8F450A4F8FC50C4F8005145
:1008D0000AF0DAF904F5E47202924FF0FF320127D0
:1008E0000EA90298ADF838200DF006FA04F5FA7258
:1008F0000EA910460392ADF838600DF0FDF904F52D
:1009000008720EA910460592ADF838600DF0F4F9A2
:100910008E4B04F513720EA9C4F82032104684F8E9
:1009200044720492ADF838600DF0E6F9874B04F597
:100930001E72C4F84C32104684F870720792FFF7AA
:1009400043FF834B2A46C4E9B734824B2946C4E9A6
:10095000B9354FF4F073484600934FF4A073FFF796
:10096000DEFE4FF07F42261D49463046A26609F062
:10097000E0FB2A4629460698FFF7B7FE06980EA91F
:10098000ADF838500DF067FE3046069909F0D1FBFE
:100990004FF03209062350460EA9ADF838300DF05D
:1009A0005AFE4FF4A3732A4650466FF00501CDF866
:1009B0000090FFF7B4FE294650460DF039F9514634
:1009C000304609F0B6FB40460B227F21FFF78DFE33
:1009D0004FF0FF320DF1200A41465046C4F8F42092
:1009E000A4F8F8500DF016FB9AE8070004F58073A0
:1009F00083E80700544B40460EA90E93ADF83C70B7
:100A00000DF0CEFD4146304609F093FB2F234FF009
:100A1000020A4FF028080093032258464FF48771CA
:100A2000FFF77DFE58464FF07F410AF069FC5846BB
:100A3000FF210AF06AFC02980EA9ADF838A00DF06B
:100A40000AFE4346032202980421CDF80080FFF7F6
:100A500066FE394602980DF0EBF8584602990AF006
:100A60002AFC082303980EA9ADF838300DF0F3FDE9
:100A7000292303225146039800932E23FFF74FFEAC
:100A8000294603980DF0D4F8584603990AF013FC50
:100A90005946304609F04DFB05980EA9ADF838705F
:100AA0000DF0D9FD2E235246009305980B21FFF738
:100AB00036FE294605980DF0BBF83046059909F039
:100AC00038FB092304980EA9ADF838300DF0C3FDAA
:100AD00025230722049800930C214346FFF71FFEAD
:100AE000294604980DF0A4F83046049909F021FB3A
:100AF0000423ADF834300D2307980EAA0DA9ADF8E4
:100B00003830FFF718FE2A46294604F52B70FFF708
:100B1000ECFD04F53773C4F8A83233233A4607983E
:100B200000934FF487714B46FFF7F9FD3046079964
:100B300009F0FFFA204611B0BDE8F08FA85B02086B
:100B400098730208087302086C5A02087C5A02085B
:100B5000905B0208D3060008704770477047034651
:100B600030B4C2684468551004EB6200D20748BF35
:100B700062599B6830BC48BFD35818470346406849
:100B800030B19A681AB9D86800F0010070470120A6
:100B9000704710B50446102122F0E1FD204610BD3B
:100BA00010B504464FF4C36122F0D9FD204610BDB4
:100BB00038B500F53B73994204460D4603D110F059
:100BC00059FA00F0C5FF04F58E739D4203D110F071
:100BD00051FA00F0ADFF04F50174A54205D110F003
:100BE00049FABDE8384000F093BF38BD4FF480713A
:100BF000002281840549C0E90122C0E90322C0E93D
:100C00000522C0E90722016082627047E06F020896
:100C100010B504462622002123F0AFFF2046FFF73F
:100C2000A7FD0A4B4FF47F022360094B2046A362C5
:100C30004FF6FF73A3850023C4E90C324FF0FF3257
:100C4000C4E910232387E36310BD00BF08730208C3
:100C50006C5A02084FF6FF7313B5044601A9ADF8AC
:100C600004300DF049F8044B20462360012384F83A
:100C7000243002B010BD00BF7C5A02082DE9F04FAD
:100C80000446002527469FB012F012FAD84BE563C0
:100C900047F8403B26222946384623F06EFF384667
:100CA000FFF766FDD34B4FF6FF7623644FF0FF331B
:100CB00004F16C081CA904F1980984F866304046D8
:100CC000A56604F1C40BADF87060FFF763FD4846FC
:100CD000FFF78CFF04F1F00A5846FFF7BBFF5046C0
:100CE000FFF7B8FF04F58E7318461293FFF76CFDFB
:100CF00004F5C07318460393FFF778FF04F5D67325
:100D000018460593FFF7A6FF04F5EC731846069303
:100D1000FFF7A0FF04F5017318461393FFF754FD86
:100D200004F51A7318460493FFF760FF04F5257362
:100D300018460793FFF78EFF04F5307318460893A3
:100D4000FFF788FF04F53B7318461493FFF73CFD4B
:100D500004F554731CA918460993ADF870600CF0A3
:100D6000CBFF04F55F731CA918460A93ADF87060B9
:100D70000CF0C2FF04F56A731CA918460B93ADF87A
:100D800070600CF0B9FF04F5757318460C93FFF70B
:100D90003FFF04F21C431846029309F075FF04F567
:100DA0009B631CA918460D93ADF870600CF0A4FF6E
:100DB00004F204531CA918460E93ADF870600CF0B1
:100DC0009BFF04F5A66318460F93FFF721FF04F578
:100DD000AF6318461093FFF71BFF04F5B86318467E
:100DE0001193FFF715FF844B2A46C4F80836834B4E
:100DF0002946C4F810364FF4F0733846C4F80C4650
:100E0000C4F8145600934FF4A073FFF788FC4FF01A
:100E10007F43261DA3663946304609F08AF92A46E3
:100E200029464046FFF761FC40461CA9ADF87050CA
:100E30000DF011FC41464FF03308304609F079F9C6
:100E400068224846CDF8008032233B213227FFF745
:100E500066FC4FF0010358461CA9ADF870300DF048
:100E6000FAFB3B460122294658460097FFF757FCFC
:100E7000294658460CF0DCFE5946484609F059F917
:100E8000092350461CA9ADF870300DF0E4FB252372
:100E900008225046009303212823FFF740FC2946EF
:100EA00050460CF0C5FE4FF00D0B51464FF0040AB2
:100EB000484609F03EF912981CAA1BA9ADF86CA08F
:100EC000ADF870B0FFF737FC2A46294604F5A87044
:100ED000FFF70BFC04F5C1632A46C4F84C312946E0
:100EE00012981593CDF800803B46FFF718FC484652
:100EF000129909F01EF949464FF00109304609F0F0
:100F000018F93B46C9220398CDF800803B21FFF732
:100F100006FC05981CA9ADF870900DF09CFB3B46B3
:100F20000122294605980097FFF7F9FB2946059805
:100F30000CF07EFE0599039809F0FBF806981CA9B1
:100F4000ADF870A00DF087FB2623072206980093CA
:100F500005212823FFF7E3FB294606980CF068FEDD
:100F60000699039809F0E5F813981CAA1BA9ADF897
:100F70006CA0ADF870B0FFF7DEFB2A46294604F5F9
:100F80000E70FFF7B2FB159B2A46C4F83432139853
:100F90003B46CDF800806FF00101FFF7C0FB1399CD
:100FA000039809F0C6F83046039909F0C2F83B46A9
:100FB00040F22D120498CDF800803B21FFF7AFFBE3
:100FC00007981CA9ADF870900DF045FB3B46012237
:100FD000294607980097FFF7A2FB294607980CF0CF
:100FE00027FE0799049809F0A4F8072308E000BF3A
:100FF000F45B020898730208DC5B0208B10B00087E
:1010000008981CA9ADF870300DF025FB27230622A7
:101010005146089800932823FFF781FB294608983A
:101020000CF006FE0899049809F083F814981CAA9D
:101030001BA9ADF86CA0ADF870B0FFF77CFB2A4699
:10104000294604F54870FFF750FB159B2A46C4F863
:101050001C3329463B461498CDF80080FFF75FFB10
:101060001499049809F065F83046049909F061F87C
:101070000B2309981CA9ADF870300DF0ECFA2A4644
:101080004FF4A07329460998CDF80080FFF747FB7D
:10109000294609980CF0CCFD3046099909F049F829
:1010A0000A230A981CA9ADF870300DF0D4FA4FF459
:1010B000CB729C230A98CDF800805421FFF72FFBB8
:1010C00029460A980CF0B4FD30460A9909F031F827
:1010D0000C230B981CA9ADF870300DF0BCFA3D2321
:1010E0002A4629460B98CDF80080FFF718FB2946C1
:1010F0000B980CF09DFD30460B9909F01AF80E2262
:101100000C984C21FFF7F1FA4FF0FF3316AF384639
:101110000C99C4F80434A4F808540CF07BFF97E849
:10112000070004F5826383E807000623DFF888815F
:101130000C981CA9ADF87430CDF870800DF030FA21
:1011400030460C9908F0F5FF2F234FF00209009369
:10115000032202984FF48771FFF7E1FA02984FF0EB
:101160007F410AF0CDF80298FF210AF0CEF80D98E1
:101170001CA9ADF870900DF06EFA2823032200939D
:1011800051460D98FFF7CBFA0D9801210CF050FD58
:101190000D9902980AF08FF808230E981CA9ADF853
:1011A00070300DF058FA292349464FF022090322E6
:1011B0000E9800932E23FFF7B2FA29460E980CF0F2
:1011C00037FD0E9902980AF076F83046029908F039
:1011D000B0FF71220F9899238121CDF80090FFF77D
:1011E0009EFA4FF07F4338460F99C4F86035A4F853
:1011F00064550CF00FFF97E8070004F26C5383E886
:10120000070005230F981CA9ADF87430CDF8708045
:101210000DF0C6F930460F9908F08BFF4FF49B7222
:101220001098AE238121CDF80090FFF778FA4FF0A7
:101230007F4338461099C4F8A835A4F8AC550CF093
:10124000E9FE97E8070004F2B45383E8070003239C
:1012500010981CA9ADF87430CDF870800DF0A0F98D
:101260003046109908F065FF1E23D4221198009390
:101270008121A323FFF753FA4FF07F43384611999A
:10128000C4F8F035A4F8F4550CF0C4FE97E8070054
:1012900004F2FC5383E8070011981CA9CDF8708074
:1012A000ADF874A00DF07CF93046119908F041FFBB
:1012B00020461FB0BDE8F08F6C5A02087047704797
:1012C0007047034630B4C2684468551004EB6200AE
:1012D000D20748BF62599B6830BC48BFD3581847F3
:1012E0000346406830B19A681AB9D86800F0010026
:1012F00070470120704710B50446102122F02FFAE4
:10130000204610BD10B504464FF43B7122F027FA79
:10131000204610BD00F51E70884208B505D10FF0BB
:10132000A9FEBDE8084000F0E3BB08BD2DE9F04F81
:1013300004460025A14691B011F0BAFEBE4BE5630C
:1013400049F8403B26222946484623F016FC4846E9
:10135000FFF70EFAB94B4FF6FF7623644FF0FF33D9
:1013600004F16C0B84F866300EA95846A566ADF8FA
:101370003860FFF70FFA04F1980304F1C408184627
:101380000EA90293ADF838600CF0B6FC294626226F
:10139000404623F0F2FB4046FFF7EAF9A84B4FF036
:1013A000FF32C4F8C430A74B04F58677C4F8EC309C
:1013B0004FF47F03C4E94125C4F8F830A4F8F06085
:1013C0003846C4F8F450A4F8FC50C4F8005109F0B1
:1013D0005BFC04F5E47203924FF0FF324FF0010A18
:1013E0000EA90398ADF838200CF086FC04F5FA72CB
:1013F0000EA910460492ADF838600CF07DFC04F59F
:1014000008720EA910460692ADF838600CF074FC14
:101410008D4B04F513720EA9C4F82032104684F8DF
:1014200044A20592ADF838600CF066FC864B04F5DA
:101430001E72C4F84C32104684F870A20792FFF76F
:10144000C3F9824B2A46C4E9B734814B2946C4E923
:10145000B9354FF4F073484600934FF4A073FFF78B
:101460005EF94FF07F42261D49463046A26608F0DD
:1014700060FE2A4629465846FFF737F958460EA916
:10148000ADF838500DF0E7F859464FF0060B3046EE
:1014900008F04FFE02980EA9ADF838B00DF0DBF859
:1014A00032224FF4A373029800926FF005012A468E
:1014B000FFF735F9294602980CF0BAFB304602993D
:1014C00008F037FE40460B226C21FFF70EF94FF073
:1014D000FF320DF1200941464846C4F8F420A4F833
:1014E000F8500CF097FD99E8070004F5807383E845
:1014F0000700544B40460EA90E93ADF83C500DF03A
:101500004FF84146304608F014FE2F234FF00209F1
:101510004FF028080093032238464FF48771FFF7F5
:10152000FEF838464FF07F4109F0EAFE3846FF21C9
:1015300009F0EBFE03980EA9ADF838900DF08BF88A
:101540004346032203980421CDF80080FFF7E7F813
:10155000514603980CF06CFB3846039909F0ABFE3A
:10156000082304980EA9ADF838300DF074F829233B
:1015700003224946049800932E23FFF7D0F829460A
:1015800004980CF055FB3846049909F094FE39464E
:10159000304608F0CEFD06980EA9ADF838A00DF043
:1015A0005AF82E2304274A46009306980B21FFF78A
:1015B000B6F8294606980CF03BFB3046069908F031
:1015C000B8FD05980EA9ADF838700DF044F8262343
:1015D0005A46059800930E214346FFF7A0F8294686
:1015E00005980CF025FB3046059908F0A2FD0D2367
:1015F00007980EAA0DA9ADF83830ADF83470FFF792
:101600009AF82A46294604F52B70FFF76EF804F580
:101610003773C4F8A83233235246079800934FF427
:1016200087713223FFF77BF83046079908F081FD78
:10163000204611B0BDE8F08F405C020898730208A4
:10164000087302086C5A02087C5A0208285C0208D7
:1016500015130008704770477047034630B4C268DE
:101660004468551004EB6200D20748BF62599B687A
:1016700030BC48BFD35818470346406830B19A6819
:101680001AB9D86800F0010070470120704710B502
:101690000446102122F063F8204610BD10B5044620
:1016A0004FF43B7122F05BF8204610BD00F51E7030
:1016B000884208B505D10FF0DDFCBDE8084000F018
:1016C00017BA08BD2DE9F04F04460025A14691B098
:1016D00011F0EEFCBD4BE56349F8403B262229465C
:1016E000484623F04AFA4846FFF742F8B84B4FF60F
:1016F000FF7623644FF0FF3304F16C0B84F86630FF
:101700000EA95846A566ADF83860FFF743F804F116
:10171000980304F1C40818460EA90293ADF8386086
:101720000CF0EAFA29462622404623F026FA4046E3
:10173000FFF71EF8A74B4FF0FF32C4F8C430A64B9A
:1017400004F58677C4F8EC304FF47F03C4E94125F3
:10175000C4F8F830A4F8F0603846C4F8F450A4F89F
:10176000FC50C4F8005109F08FFA04F5E4720392BA
:101770004FF0FF324FF0010A0EA90398ADF8382060
:101780000CF0BAFA04F5FA720EA910460492ADF8FC
:1017900038600CF0B1FA04F508720EA910460692F2
:1017A000ADF838600CF0A8FA8C4B04F513720EA952
:1017B000C4F82032104684F844A20592ADF838608F
:1017C0000CF09AFA854B04F51E72C4F84C321046A0
:1017D00084F870A20792FEF7F7FF814B2A46C4E90E
:1017E000B734804B2946C4E9B9354FF4F073484605
:1017F00000934FF4A073FEF792FF4FF07F42261D37
:1018000049463046A26608F094FC2A4629465846C6
:10181000FEF76BFF58460EA9ADF838500CF01BFFD1
:1018200059464FF0060B304608F083FC02980EA98B
:10183000ADF838B00CF00FFF32224FF4A3730298CA
:1018400000926FF005012A46FEF769FF29460298CB
:101850000CF0EEF93046029908F06BFC40460B2282
:101860005921FEF742FF4FF0FF320DF120094146AA
:101870004846C4F8F420A4F8F8500CF0CBFB99E8E3
:1018800007004FF0020904F5807383E80700524B0C
:1018900040460EA90E93ADF83C900CF081FE4146F7
:1018A000304608F046FC2F230322009338464FF4BD
:1018B0008771FEF734FF38464FF07F4109F020FD75
:1018C0003846FF2109F021FD03980EA9ADF83890A4
:1018D0000CF0C1FE28230322009303980421FEF795
:1018E0001EFF514603980CF0A3F93846039909F0FE
:1018F000E2FC082304980EA9ADF838300CF0ABFEDA
:10190000292303224946049800932E23FEF707FF5C
:10191000294604980CF08CF93846049909F0CBFC60
:101920003946304608F005FC06980EA9ADF838A0F7
:101930000CF091FE2E234A46009306980B21FEF7E9
:10194000EEFE294606980CF073F93046069908F029
:10195000F0FB072305980EA9ADF838300CF07BFE9C
:1019600025235A46059800930E212623FEF7D7FE1D
:10197000294605980CF05CF93046059908F0D9FB2A
:101980000423ADF834300D2307980EAA0DA9ADF845
:101990003830FEF7D0FE2A46294604F52B70FEF7B4
:1019A000A4FE04F53773C4F8A832332352460798CF
:1019B00000934FF487713223FEF7B1FE304607994A
:1019C00008F0B7FB204611B0BDE8F08F8C5C020830
:1019D00098730208087302086C5A02087C5A0208BD
:1019E000745C0208AD16000870477047704741608C
:1019F0007047704770470123037270477047034672
:101A000010B4C2684168541001EB6200D20748BFAD
:101A10000A599B685DF8044B48BFD35818470346E2
:101A2000406830B19A681AB9D86800F00100704770
:101A30000120704710B504460C2121F090FE20468D
:101A400010BD10B50446102121F089FE204610BDBE
:101A500010B504464FF4AE7121F081FE204610BD52
:101A600010B50FF007FBBDE810400368DB6B1847AB
:101A7000044B1B6893F85C200AB1186D00B9986894
:101A8000704700BFD09E0520F8B5044600251746D4
:101A90000E460FF001FC124BC4E94F551C60114B70
:101AA000C4E953552360104BC4E95576C4E9513558
:101AB0000E4B0121186803689B689847284600F080
:101AC00001FDFFF7D5FF19F030FEFFF7D1FF19F048
:101AD000A3FEFFF7CDFF19F0ABFE2046F8BD00BF17
:101AE000209F05204C69020834690208D09E052019
:101AF000064BC0F84801C0F84C310023C0F8503103
:101B000000F5A273C0F84031704700BF511F0008B4
:101B1000064BC0F84801C0F84C310023C0F85031E2
:101B200000F5A273C0F84031704700BF091E0008DD
:101B3000064BC0F84801C0F84C310023C0F85031C2
:101B400000F5A273C0F84031704700BFC11C000807
:101B5000064BC0F84801C0F84C310023C0F85031A2
:101B600000F5A273C0F84031704700BF791B000830
:101B700003685B6A184700002DE9F14F0746D0E97A
:101B8000556AB06803681B6A9847B0F53B7F05D279
:101B9000A321434B434A444822F0E8FD70680368A0
:101BA0001B6A98470F2803D8A421404B3D4AF2E70F
:101BB000F06803681B6A98470B2803D8A5213C4BA3
:101BC000384AE8E70FF056FADFF8EC9004300FF0EF
:101BD00091FAD9F8000010B10368DB689847D9F88A
:101BE000000010B103681B689847DFF8D080D8F870
:101BF000000010B103685B699847D7F83C0110B149
:101C000003685B689847D8F8000010B103681B6848
:101C10009847D7F83C0110B103689B6898470021AA
:101C2000F068FFF7A5FF4FF0000B224BC0F804B09F
:101C300080F808B003600446B068594603685B6AE0
:101C400098470546FEF738FC7068594603685B6A9A
:101C5000984706462946FEF749FC331DC7F83C6104
:101C6000C9F80040C8F80050CAF80030C6F808A00B
:101C70002B68EE632846DB689847336830461B685C
:101C800098472146284611F0AEFB236820461B6981
:101C90009847204623685B6901B0BDE8F04F1847BC
:101CA000B85C0208465D0208245E0208655E020810
:101CB000085F0208A0690208189F05201C9F0520E4
:101CC0002DE9F14F0746D0E9556AB06803681B6AF1
:101CD0009847B0F53B7F05D2A321434B434A444884
:101CE00022F044FD706803681B6A98470F2803D8E8
:101CF000A421404B3D4AF2E7F06803681B6A98470D
:101D00000B2803D8A5213C4B384AE8E70FF0B2F97D
:101D1000DFF8EC9004300FF0EDF9D9F8000010B1C5
:101D20000368DB689847D9F8000010B103681B68A6
:101D30009847DFF8D080D8F8000010B103685B69DD
:101D40009847D7F83C0110B103685B689847D8F80A
:101D5000000010B103681B689847D7F83C0110B128
:101D600003689B6898470021F068FFF701FF4FF078
:101D7000000B224BC0F804B080F808B003600446A2
:101D8000B068594603685B6A98470546FEF7BAFA99
:101D90007068594603685B6A984706462946FEF70D
:101DA000CBFA331DC7F83C61C9F80040C8F80050B1
:101DB000CAF80030C6F808A02B68EE632846DB6836
:101DC0009847336830461B6898472146284611F0EB
:101DD0000AFB236820461B699847204623685B69F5
:101DE00001B0BDE8F04F1847B85C0208AB5F0208CD
:101DF000245E0208655E0208085F0208A069020806
:101E0000189F05201C9F05202DE9F14F0746D0E9BA
:101E1000556AB06803681B6A9847B0F53B7F05D2E6
:101E2000A321434B434A444822F0A0FC7068036856
:101E30001B6A98470F2803D8A421404B3D4AF2E77C
:101E4000F06803681B6A98470B2803D8A5213C4B10
:101E5000384AE8E70FF00EF9DFF8EC9004300FF0A5
:101E600049F9D9F8000010B10368DB689847D9F840
:101E7000000010B103681B689847DFF8D080D8F8DD
:101E8000000010B103685B699847D7F83C0110B1B6
:101E900003685B689847D8F8000010B103681B68B6
:101EA0009847D7F83C0110B103689B689847002118
:101EB000F068FFF75DFE4FF0000B224BC0F804B056
:101EC00080F808B003600446B068594603685B6A4E
:101ED00098470546FEF7B0FA7068594603685B6A92
:101EE000984706462946FEF7C1FA331DC7F83C61FC
:101EF000C9F80040C8F80050CAF80030C6F808A079
:101F00002B68EE632846DB689847336830461B68C9
:101F100098472146284611F066FA236820461B6937
:101F20009847204623685B6901B0BDE8F04F184729
:101F3000B85C020887600208245E0208655E020839
:101F4000085F0208A0690208189F05201C9F052051
:101F50002DE9F14F0746D0E9556AB06803681B6A5E
:101F60009847B0F5C36F05D2A321434B434A444879
:101F700022F0FCFB706803681B6A98470F2803D89F
:101F8000A421404B3D4AF2E7F06803681B6A98477A
:101F90000B2803D8A5213C4B384AE8E70FF06AF834
:101FA000DFF8EC9004300FF0A5F8D9F8000010B17C
:101FB0000368DB689847D9F8000010B103681B6814
:101FC0009847DFF8D080D8F8000010B103685B694B
:101FD0009847D7F83C0110B103685B689847D8F878
:101FE000000010B103681B689847D7F83C0110B196
:101FF00003689B6898470021F068FFF7B9FD4FF030
:10200000000B224BC0F804B080F808B0036004460F
:10201000B068594603685B6A98470546FEF7D0F9F1
:102020007068594603685B6A984706462946FEF77A
:10203000E1F9331DC7F83C61C9F80040C8F8005009
:10204000CAF80030C6F808A02B68EE632846DB68A3
:102050009847336830461B6898472146284611F058
:10206000C2F9236820461B699847204623685B69AC
:1020700001B0BDE8F04F1847B85C0208696102087A
:10208000245E0208655E0208085F0208A069020873
:10209000189F05201C9F052013B5002451B103682B
:1020A00001948DF8034001AA9C680DF10303A04739
:1020B00002B010BD0846FBE7C0897047008A704730
:1020C000C088704780887047807A00F07F00704732
:1020D000807AC00970470020704700207047406A2E
:1020E0007047806A7047704710B58A880B884C88A3
:1020F000C169D20A51F822009BB243EA0443184452
:1021000010BD10B50446BAB1107B68B1537BD27ACA
:102110001B0203F4E0631A43236A03EB82031A8869
:102120008A4202D193F9020010BD05D8013880B26D
:1021300004330028F3D1F7E70020F5E710B5044693
:102140002C2121F00CFB204610BD000030B50446C8
:102150008BB0BDF860500895BDF85C5007959DF8B0
:10216000505006959DF84C5005959DF848500495A3
:102170009DF8445003959DF8405002959DF83C50C1
:102180000195BDF83850009510F098FD2046064B9B
:102190002360159BE361169B2362199B63621A9B64
:1021A000A3620BB030BD00BFC469020870470000D5
:1021B00030B5124C8FB0236813F001031BD13F22BE
:1021C00009920F4A012508920E4ACDE90B33CDE959
:1021D0000632CDE9013304220A9305931923CDE990
:1021E000032509490D2209480093FFF7AFFF08486E
:1021F000256022F0D9FA05480FB030BD1CB3042089
:10220000B87C0208B07C0208F404009020B30420DB
:10221000AD2100087047000030B5124D8FB02B681B
:1022200013F001031BD13F2209920F4A01240892A7
:102230000E4ACDE90B33CDE90632CDE90133042254
:102240000A9305930A23CDE9032409492246094844
:102250000093FFF77BFF08482C6022F0A5FA0548A1
:102260000FB030BD4CB30420A87C0208B47C020837
:10227000AC05009050B30420152200087047000000
:1022800030B5124C8FB0236813F001031BD13F22ED
:1022900009920F4A012508920E4ACDE90B33CDE988
:1022A0000632CDE9013304220A9305931723CDE9C1
:1022B00003250949112209480093FFF747FF084801
:1022C000256022F071FA05480FB030BD7CB30420C0
:1022D000AC7C0208BC7C0208BC05009080B30420E2
:1022E0007D22000810B5002404600C6014601C609E
:1022F00010BD704730B5124D8FB02B6813F001033D
:102300001BD13F2209920F4A012408920E4ACDE9BF
:102310000B33CDE90632CDE9013304220A9305934C
:102320001423CDE903240949224609480093FFF705
:102330000DFF08482C6022F037FA05480FB030BD79
:10234000ACB30420C07C0208C47C0208500C00908E
:10235000B0B30420F3220008704710B504460421EE
:1023600021F0FDF9204610BD08B5032913D8DFE898
:1023700001F002060A0E00F019F8006808BD00F02E
:1023800015F84068FAE700F011F88068F6E700F009
:102390000DF8C068F2E70020F0E700000048704741
:1023A000386A02080E2070470720704700487047BF
:1023B000DCB3042010B5FFF79DFF064C2060FFF74B
:1023C000F7FE6060FFF728FFA060FFF759FFE060AD
:1023D00010BD00BFDCB30420002070470020704710
:1023E0000EB403B503AB53F8042B002101930FF097
:1023F000CFFE02B05DF804EB03B070470CB407B534
:1024000004AB53F8042B01930FF0C2FE03B05DF848
:1024100004EB02B07047000010B5436C044673B380
:10242000038F2BB9C521184B184A194822F09EF981
:10243000C38E00EB43035B8C0BB311F018FD238FAD
:10244000012B03D8CB21134B134AEEE7E28E40F663
:102450003F10531C9BB21946092B88BFA3F10A01F8
:1024600004EB4101498C814209D10A2B28BF00238A
:1024700004EB4202508C04EB430358845184204601
:10248000BDE8104011F0F5BB4B620208546202082F
:10249000FF620208436302085163020811F0B1BBF6
:1024A00010B586B002AC84E806001A460AAB059364
:1024B0000193099B21460093089B0EF09BF906B0FF
:1024C00010BD000038B518BB124B13481C681349E7
:1024D000B4B1226822440260626822440A60A268A1
:1024E000144400220E4B1A80FFF760FF0546FFF7E9
:1024F0005BFF0C4B1C600C4B1D600C4B188007E005
:102500000B4B03600B4B0B600B4B1C68002CE8D192
:1025100038BD00BFF8B30420F0B30420ECB30420AE
:10252000F4B30420309F0520289F0520249F052018
:10253000F47C0208C87C0208506B0208044B1B683C
:1025400053F82100034B1B6803EB4000704700BFAA
:10255000ECB30420F0B30420012380F87C1080F851
:102560007D3070477047002070470000816400395B
:1025700018BF0121014B1970704700BFC39E052091
:10258000704700207047C36B0BB10846184770476F
:10259000406803689B6918477047704770477047E9
:1025A00000207047B1F904308380012070477047E4
:1025B00080F82610704790F826007047002210B56A
:1025C000B1F90840B1F90A10028042808480C180CC
:1025D00010BD0022028042808280C2807047017755
:1025E00070470162704780F82410704780F825100A
:1025F000704701207047983070478C3070478430A6
:1026000070477047704770479022024B83F87623DB
:10261000704700BF00E100E07047000000487047CD
:1026200000000020704710B504462C2121F097F8D7
:10263000204610BD10B50446BC2121F090F820467C
:1026400010BD000070B5044608F0C7FE23689D6EFB
:102650000EF010FD01462046A84723682046D3F817
:102660008C500023AC46BDE870401A4600496047D4
:102670000000002008F098BE08F0A2BE08F05DBE81
:1026800008F0DBBF10B5044609F070FC2368204653
:10269000BDE81040D3F8BC301847000010B590F8E2
:1026A0007C4090F838100C4B8C421A7809D03AB91B
:1026B0000A490B4A08881488108001220C801A707D
:1026C00010BD002AFCD0064A0449148808880C80F2
:1026D00010800022F3E700BFC29E0520CA9E05209D
:1026E000CC9E052008B5094B1B888B4203D8084BAC
:1026F0001B88934205D9A521064B074A074822F0BB
:1027000035F8074B1980074B1A8008BDCC9E052071
:10271000CA9E05202364020886640208C964020870
:10272000C89E0520C69E05202DE9F0410D460446B1
:10273000194635B940F20131144B154A154822F0BB
:1027400015F8C0E91052003A18BF01220368124E72
:10275000D3F8903032709847E569A5B12B681F68AF
:10276000337873B1236820465B6B9847236C8342B0
:1027700007D1616C094B28461A883B46BDE8F041F9
:102780001847216CF6E7BDE8F08100BF0865020834
:1027900040650208C9640208C49E0520C89E052041
:1027A0004FF48002034BC3F88C20BFF34F8FBFF36D
:1027B0006F8F704700E100E04FF48002014BDA6058
:1027C000704700BF00E100E0034690F87E0018B1BA
:1027D000586803681B68184770470000002370B5ED
:1027E0008380124E124B05460360336893F85C20D9
:1027F0000AB1186D00B9986803681B6B9847B0FA66
:1028000080F433686409186D30B103681B6B984716
:10281000002808BF44F001042CB92C21054B064ABE
:10282000064821F0A3FF284670BD00BFD09E0520BA
:102830005C6B02088E650208EC65020825660208DA
:1028400070B5214E356815F001053AD11F4C204B6B
:1028500004F13400C4E90035C4E902552561E5847A
:10286000A562A58510F059F904F158000BF0CAF9DA
:102870002046184BA365184B40F8843BFFF7AEFF8A
:10288000164B1748C4F884302433C4F88C304FF406
:10289000C803C4E928350023C4F8AC30C4F8B0300C
:1028A000C4F8B430C4F8B8300E4BC4F89050C4F833
:1028B00098300123C4F89C50C4F8A850336021F02C
:1028C00073FF024870BD00BFFCB3042000B40420B5
:1028D000D07102087C6B0208F46B02088471020854
:1028E000072600086471020803685B6C1847012022
:1028F000704703689B6A1847FEE740F2EF30704765
:102900004FF48002044B0360044BC3F88C20BFF3E8
:102910004F8FBFF36F8F7047406C020800E100E0FB
:1029200010B504464FF45A61FFF7EAFF204620F045
:1029300016FF204610BD0000104B82B0D3F888204F
:1029400042F48022C3F88820D3F8882002F4802241
:102950000192019A1A6E42F480221A661A6E22F4CB
:1029600080221A66064B074A5A62074A1A624FF4D7
:102970008002064BDA6002B0704700BF000C0246CE
:1029800068CD0420F9280008E52B000800E100E0EC
:1029900008B50A2809D8DFE800F006100E08080874
:1029A000081010101000022008BD9021044B054AA9
:1029B000054821F0DBFE0020F6E70120F4E700BF28
:1029C000816602089C660208E766020810B5887FE7
:1029D0000C46FFF7DDFF174B5863A18AE28A42EAF3
:1029E00001425A642269DA63628BA18A521A1A641C
:1029F0002268082A16D1A18A628B521A9A61A18A8A
:102A0000628B521A1A615862217F0B4A42EA0162B4
:102A1000DA61E2681A6222695A612269DA60074A59
:102A20001A6010BD0022D8611A61E2689A63044AF4
:102A3000F6E700BF00B002400900010001230200D8
:102A40000123030008B50B280BD8DFE800F00612BD
:102A5000100A0A0A0A0808080808022008BD05200A
:102A6000FCE76F21044B054A054821F07FFE00205A
:102A7000F4E70120F2E700BF816602080E67020852
:102A8000E7660208F8B50C46487FFFF7DBFFA77F33
:102A900005463846FFF7D6FF06463846FFF778FF6B
:102AA000A38A628BD21A474B1A64A18A628B521A8C
:102AB0009A61A18A228B521A1A615863A18AE28A0A
:102AC00042EA01425A642269DA636268DA60216884
:102AD00080292BD0227F11D8202969D0402967D0A6
:102AE00004291DD045EA0265364B45F40035DD6109
:102AF000617FA27F914261D0334A46E0B1F5807F89
:102B000004D0B1F5007FEDD1304900E0304941EA11
:102B10000262DA61E2681A625E6222695A6133E037
:102B200045EA026242F40032DA61F5E7A068021D6C
:102B3000DA62227F45EA026242F40032DA615E62C2
:102B400022695A61027842B1012A20D04FF48D7176
:102B5000204B214A214821F009FEDA69418822F4FC
:102B60007F42013922F0100242EA01220121DA619A
:102B7000144BDA6942F02002DA61DA699206FCD479
:102B800010229A600029B7D0154A1A60F8BDDA6998
:102B9000408822F47F42217F013822F0100242EA6D
:102BA0000022FF3942F0100218BF0121DA61DFE78D
:102BB00045EA0262034B42F40032B5E742F20132C9
:102BC000E3E700BF00B0024001230100090002005A
:102BD0000A0002005867020872670208E7660208E6
:102BE00001230200024B1B68586803685B691847A1
:102BF000D09E052070B5044600262546094B0C30B2
:102C000060602672667245F8203B6022294609F012
:102C10002FFB04F55A63EE6024359D42FBD120461C
:102C200070BD00BF406C0208034B1A68D207FCD489
:102C300023229A60704700BF00B002407047000036
:102C400030B50F4C2568ED07FCD42325A56002257F
:102C5000090441F00101FF2B65636164E0630AD060
:102C60000849656241EA0363E361074B22626061E0
:102C7000E060236030BDE561039BA363034BF8E78D
:102C800000B0024009000100010002000100030041
:102C900030B50E4C2568ED07FCD42325A560022530
:102CA000120442F00102FF2B65636264E063E1609D
:102CB00008D01B0643F00213E361054B65626061B7
:102CC000236030BD034BE3610123F9E700B002400C
:102CD00001000200020002FF30B50B4C2568ED0731
:102CE000FCD42325A560022512041B0643F40033FF
:102CF00042F0010265636264E063E160E361034BFB
:102D000065626061236030BD00B0024001000200D6
:102D1000012108B50022084607F047F80A4B186061
:102D200028B92821094B0A4A0A4821F01FFD002230
:102D30000421012007F0DEF8074B186018B92C2198
:102D4000064B034AF0E708BDC0B40420B067020890
:102D5000F967020828680208BCB404205168020818
:102D6000024B4FF0FF31186807F06EB8C0B4042072
:102D7000014B186807F096B8C0B40420024B00213C
:102D8000186807F061B800BFC0B40420FFF7F0BFB7
:102D9000002303481A460349006807F0EAB800BF59
:102DA000BCB4042004B00420002313B5074C1A4619
:102DB00001A9206807F011F94FF0FF3300222068C5
:102DC00001A907F00AF902B010BD00BFBCB404208D
:102DD00006F0DDBF012070470C2070470C2303FB79
:102DE0000100083070470C2303FB010008307047D6
:102DF000012070474FF4C36070474FF4C36303FB77
:102E00000100083070474FF4C36303FB0100083032
:102E10007047012070471020704700EB0110083008
:102E2000704700EB0110083070470846FEF760BE9F
:102E300010B50446024B036007F066F9204610BD4A
:102E4000F86C020810B50446FFF7F2FF2046142183
:102E500020F085FC204610BD10B50446024B0360EF
:102E600007F052F9204610BDC46C020810B50446A4
:102E7000FFF7F2FF20464FF4C46120F070FC2046BB
:102E800010BD000010B50446024B036007F03CF98A
:102E9000204610BD906C020810B50446FFF7F2FF03
:102EA0002046182120F05BFC204610BD10B50446DA
:102EB000074B036000F24C60FFF7BAFF04F12C00EF
:102EC000FFF7CAFF04F11400FFF7DCFF204610BD36
:102ED0002C6D020808B50248FFF7E8FF08BD00BFE7
:102EE000ACC3042010B50446FFF7E0FF20464FF4C2
:102EF000F86120F034FC204610BD00002DE9F341BC
:102F0000FFF74CFA00240546FFF74CFA234601462A
:102F100022462846009411F011FA234B234A2046FA
:102F20001A60234EFFF7CEFA224B234A23489A60B9
:102F300011F06AF93368DB0730D4214C214B04F2DD
:102F4000646504F1140004F12C0804F24C6723605A
:102F50006060C4F80880E760256107F0D7F81A4B75
:102F60004046636107F0D2F8184B3846E36207F039
:102F7000CDF8174B04F5CC60C4F84C36FDF780FA59
:102F8000224604F5CC612846FDF7EAFA2846FEF70A
:102F9000AFFD01230F48336021F006FC0E4802B05C
:102FA000BDE8F04100F016BA2C9F052058B504206A
:102FB000A8C3042078B504205CB5042008B0042020
:102FC000ACC304202C6D0208906C0208C46C02088B
:102FD000F86C0208D52E0008C4B404207047000025
:102FE000014808F00EBA00BFC4B4042070B52B4EDF
:102FF0002B4B2C4C2C4D30462360FFF7FBFD284615
:1030000016F002FD29480FF09DFA00224FF480715E
:10301000274B2848C3E913122749C3E90422C3E90F
:103020001B122649C3E906220B604FF4A0710180F0
:103030002348C3E9082201804FF4F0712148C3E915
:103040000A2201802048C3E90F22C3E91122C3E903
:103050001522C3E918221A639A8683F85C209A66BF
:1030600083F87420C3E90165DC60018017491848C2
:103070000A70012183F838101649C3F88C201960B2
:1030800015499A67C3E91F01C3F890201349144AF0
:10309000C3F88410C3F8882070BD00BF04B60420B4
:1030A000486E0208A4C3042078B504205CB504204F
:1030B000C4B40420CC9E052001000001D09E052050
:1030C000C89E0520CA9E0520C69E0520C29E0520DA
:1030D000000001015C6D0208000478002800140063
:1030E000606E02080148FFF70BBC00BF04B6042065
:1030F000704770477047000010B509480C464FF400
:10310000005103F087FA01280CBF01220022054B71
:1031100004D1197811B920701A7010BD0020FBE796
:10312000000802426CCB042010B50446082120F0B0
:1031300016FB204610BD0000014B186880B2704796
:103140000CB004204FF0C04382B08DF807009DF80A
:1031500007201A70BFF34F8F02B0704782B08DF80E
:1031600007009DF80720034B1A70BFF34F8F02B082
:10317000704700BF0000106072B6FEE770470000A5
:103180004FF4F072034B1A600022034B1A60FFF7F2
:1031900071BA00BF78CB042074CB042013B50C4661
:1031A000FFF76CFA144B1B78D3B9B4F90230E288FC
:1031B000009313441BB2114A00981168019388428E
:1031C000ACBF1168009911600D4A11689942ACBFFB
:1031D0001368019B136001220A4B1A7002B010BDE4
:1031E000B4F90030A2881A4412B2C2F5F07200920B
:1031F000C3F5F073DFE700BFC29E052078CB042043
:1032000074CB04207CCB0420FFF708BAFFF70ABA7E
:10321000FFF736BAFFF7F8B9FFF7CEBAFFF7C0BA33
:10322000FFF7FAB9FFF728BA08F081B810B50446DD
:10323000942120F094FA204610BD000010B5644C93
:1032400000224FF40061204603F0EAF90A2004F05E
:10325000ADFA01224FF40061204603F0E1F9782035
:1032600004F0A4FAE020FFF76DFF0020FFF776FFDF
:103270001020FFF773FF1420FFF770FF0120FFF706
:103280006DFF0E20FFF76AFF0420FFF767FF332072
:10329000FFF764FF5620FFF761FF4820FFF75EFF4E
:1032A0000320FFF75BFF0C20FFF758FF0B20FFF711
:1032B00055FF2B20FFF752FF3420FFF74FFF0F2061
:1032C000FFF74CFFE120FFF73DFF0020FFF746FF2F
:1032D0001220FFF743FF1820FFF740FF0520FFF7FC
:1032E0003DFF1220FFF73AFF0620FFF737FF40208F
:1032F000FFF734FF3420FFF731FF5720FFF72EFF91
:103300000620FFF72BFF1020FFF728FF0C20FFF708
:1033100025FF3B20FFF722FF3F20FFF71FFF0F2075
:10332000FFF71CFFC020FFF70DFF0F20FFF716FF70
:103330000C20FFF713FFC120FFF704FF4120FFF728
:103340000DFFC520FFF7FEFE0020FFF707FF252039
:10335000FFF704FF8020FFF701FF3620FFF7F2FEA2
:103360004820FFF7FBFE3A20FFF7ECFE5520FFF761
:10337000F5FEB020FFF7E6FE0020FFF7EFFEB120DC
:10338000FFF7E0FEA020FFF7E9FEB620FFF7DAFE28
:103390000220FFF7E3FEFFF7E1FE2120FFF7D2FE58
:1033A0001120FFF7CFFE782004F000FA3520FFF758
:1033B000C9FE0020FFF7D2FE3520FFF7C3FE002034
:1033C000FFF7CCFEBDE810402920FFF7BBBE00BFD1
:1033D0000010024238B50446FFF730FF154B0021BC
:1033E0006361154A154802F085FD04F18805022144
:1033F000134A124802F07EFD284600F093F9256139
:103400000125104B84F87450E36323682046D3F8F9
:10341000A83098474FF6FF73984204D00A4B1B78A8
:103420000BB984F84C502046FFF70CF9226C074B7F
:103430001A6038BD88CB042029350008F0CC042060
:1034400079310008D12D0008C49E052070CB0420DE
:10345000F8B5044616461D462A20FFF773FEE7B26C
:10346000C4F30720FFF77AFE013E3846FFF776FEE9
:103470003019C0F30720FFF771FEB819C0B2FFF78B
:103480006DFE2B20FFF75EFECEB2C1F30720FFF7E3
:1034900065FE013D3046FFF761FE6818C0F3072066
:1034A000FFF75CFE7019C0B2FFF758FEBDE8F840A8
:1034B0002C20FFF747BE000070B5154D154B2A684C
:1034C0001A60154A14682A68A41A002C1BDD142CF3
:1034D000A8BF1424296823464FF4A0720020FFF7E8
:1034E000B7FF4FF420700D4B2E6819682B6800FB56
:1034F000061123442B600A4A00FB04F3BDE8704028
:10350000084802F0EFBB4FF4F0721A6070BD00BFC4
:1035100084CB04200CB0042080CB042070CB04208A
:1035200000001060F0CC0420024B834201D1FFF771
:10353000C3BF7047F0CC0420B0F5005F10B51ED1BA
:1035400000240F4B1B6893F86E2083F880400132F3
:1035500083F86E20FFF71CFC204600F043F8094B6F
:103560001A7862B11C70084B1A68084B1A60084B35
:103570001A68084B1A60BDE81040FFF79DBF10BDE8
:10358000D09E05207CCB042078CB042084CB042063
:1035900074CB042080CB0420B0F5005F02D1002062
:1035A00000F03EB8202802BF0122014B1A7070477C
:1035B00090CB0420014608B5034B186801B10121E6
:1035C00008F0FCFC012008BDD09E05200248034BFA
:1035D0000360FFF78FBD00BF88CB0420406D020859
:1035E00070470000032815D8DFE800F002080C102F
:1035F00001224FF40051084803F012B801224FF4A1
:103600008041F8E701224FF40041F4E701228021D4
:103610000248F1E7704700BF00140242001802425E
:10362000032815D8DFE800F002080C1000224FF440
:103630000051084802F0F4BF00224FF48041F8E73F
:1036400000224FF40041F4E7002280210248F1E714
:10365000704700BF0014024200180242032811D82C
:10366000DFE800F002070A0D4FF40051064802F0AF
:10367000DCBF4FF48041F9E74FF40041F6E78021C9
:103680000248F4E7704700BF0014024200180242EB
:103690007047000010B5094C00224021204602F07E
:1036A000BFFF0A2004F082F820460122402102F0E8
:1036B000B7FFBDE810400A2004F078B800100242BD
:1036C0007FB5104B15461A780C4602F0FF061AB962
:1036D0000026304604B070BD00221A700A238321F0
:1036E00000930948062302AA02F0A0F80028EFD1AF
:1036F000BDF80A302B60BDF80C30C3F5A073236011
:10370000E7E700BF90CB04209CCC042010B5044612
:10371000042120F024F8204610BD40687047416025
:10372000704700004FF0E022D2F8FC3D43F0807378
:10373000C2F8FC3D054B064AD3F8B01F0A43C3F854
:10374000B02F1A6842F001021A607047001000E0C2
:1037500055CEACC5521A02EB5302B2FBF3F07047E0
:10376000014B5868704700BF001000E0704710B56B
:1037700004460C211FF0F3FF204610BD10B503686E
:1037800004461B6931B19847A26863689B1A0344D9
:10379000636010BD9847A060FBE7000001220E485F
:1037A000D0F8883043F47003C0F888300B4B1A60AF
:1037B0000022DA611A625A62196821F0A85121F4D4
:1037C000102119609A62196821F4802119601A6524
:1037D0004FF000638360704700ED00E0000C02468C
:1037E00008B5012006F0D3FAFBE7000000200149EC
:1037F00005F02EBEB535000808B50021064A074879
:1038000006F07AFA064B00211860064A064806F0D0
:1038100073FA064B186008BDFC6E0208E137000819
:1038200098CB0420D86E0208E57F000894CB0420D2
:1038300070B51F4B88B0D3F89C20694642F0100247
:10384000C3F89C20D3F89C30064603F01003019384
:1038500002A8184D019B01F0BBFD01F0A9FD164B1C
:103860002B6040F2E733EB60144BB0FBF3F0002326
:103870000138686028462B61AB6003F003FF044603
:1038800068B9284603F03CFD044640B90F2E0CD819
:1038900002463146312002F0D7FB094B1E60312031
:1038A00002F002FC204608B070BD0124F7E700BF1B
:1038B000000C02469CCB04200010004040420F0048
:1038C00018B0042000B59FB06022002106A821F0A6
:1038D00054F918220021684621F04FF94FF4403086
:1038E00000F030FE08B172B6FEE710224FF480718E
:1038F0000223CDE909122822CDE91630CDE914338F
:10390000CDE91823CDE91A3306930C23CDE91C30F9
:1039100006A801F0DFF808B172B6FEE71F22032304
:10392000CDE90200CDE9040004216846CDE9002379
:1039300000F064FF08B172B6FEE71FB05DF804FB4B
:103940004FF01008002480B592B0424600210AA82A
:1039500021F013F9ADF8244002F000FC4FF0C04311
:1039600001260B9303F5801301330C93BF4B0AA878
:103970000D93ADF8286002F005FC09A8ADF82440CD
:1039800002F026FC042002F0D7FB03F0D3FE00F087
:103990004DFE00F053FE022000F01CFE044608B16C
:1039A00072B6FEE7B24DFFF78DFF142221460AA83A
:1039B00021F0E3F8D5F88C30202743F01003C5F848
:1039C0008C30D5F88C30224603F010030393039B10
:1039D000D5F88C3040F6420143F00403C5F88C3032
:1039E000D5F88C30A34803F004030493049BD5F866
:1039F0008C304FF4005943F02003C5F88C30D5F8D3
:103A00008C304FF0800A03F020030593059BD5F816
:103A10008C3043F00103C5F88C30D5F88C3003F0BE
:103A200001030693069BD5F88C3043F00203C5F8DA
:103A30008C30D5F88C3003F002030793079BD5F840
:103A40008C3043F00803C5F88C30D5F88C3003F087
:103A500008030893089BD5F88C3043F04003C5F861
:103A60008C30D5F88C3003F040030993099B02F0A9
:103A7000D7FD22464FF460417F4802F0D1FD224637
:103A800084217E4802F0CCFD224680217C4802F051
:103A9000C7FD224680217B4802F0C2FD7A4B754863
:103AA0000AA9CDE90A730C9602F0AAFC4FF404634C
:103AB00070480AA9CDE90A36CDE90C4402F0A0FC11
:103AC0006F480AA90227CDE90A940C9402F098FCE9
:103AD0004FF4604368480AA9CDE90A360C940D9763
:103AE00002F08EFCCDF828904FF00409674B614836
:103AF0000AA9CDE90B3402F083FC60480AA9CDE99C
:103B00000A96CDE90C4402F07BFC5C480AA9CDE999
:103B10000AA6CDE90C4702F073FC59480AA9CDE981
:103B20000AA6CDE90C4402F06BFC56480AA9CDE97F
:103B30000AA6CDE90C4402F063FC4E480AA9CDE97F
:103B40000A76CDE90C6702F05BFC2246052140466F
:103B500002F07AFA404602F0A7FA2246072118201E
:103B600002F072FA182002F09FFACDE90A44D5F863
:103B70008830224643F00103C5F88830D5F88830F4
:103B8000072103F0010355200293029B02F05CFA27
:103B9000552002F089FA4FF40073DFF8FCA0DFF83B
:103BA000FCC008254FF4803ECAE900C3CAE90243BD
:103BB0004FF400035046CAE90454CAE907E3CAE9CE
:103BC0000966CAE90B44CAF81860CAF8344001F023
:103BD000C5FE08B172B6FEE74FF080630AA9CDE9D1
:103BE0000A30504601F04AFC08B172B6FEE7414681
:103BF000504602F09BF908B172B6FEE704F0E0F916
:103C0000044608B172B6FEE7014614220DA820F062
:103C1000B4FF1F481F4B0AA9036003F58273C0E974
:103C200001344FF48053C0E909344FF40013C363E7
:103C300011232246C0E90344C0E90544C0E9074412
:103C4000C0E90B44C0E90D44C0E91044CDE90A665F
:103C5000CDE90E6880F84840CDF83090109301F01F
:103C6000D9FB0146E0B172B6FEE700BF00010100DA
:103C7000000C0246001002420014024200180242E8
:103C8000000802420004024200002110000031102E
:103C9000E8CB042000040D42F0CC0420D006024002
:103CA000019018220AA820F068FF4C4C4C4B019957
:103CB000C4E900391723C4E904374FF08043204694
:103CC000C4E90211C4E90611C4E90816C4E90A31BD
:103CD000C4E90C15C4E90E1102F0BCFD08B172B6BE
:103CE000FEE74FF0011341F2883220460AA90A96F6
:103CF0000C960D9302F09EFF08B172B6FEE72046C7
:103D000000F03AFA00B1FEE7304603F04FFD2046DE
:103D100000F0D8FB00B1FEE7012003F047FD2F487B
:103D200000F0B9FA00B1FEE72C4800F0EDFA0346C6
:103D300000B1FEE701252B482B4AC0E905338380FB
:103D40000260056204F000F9034608B172B6FEE7AE
:103D50004FF440322548264CC0E90633C0E9004202
:103D60000222C0E9022303F0F7F908B172B6FEE7B8
:103D70004FF000431F482049C0E9001302F00AFB3E
:103D800008B172B6FEE71D4C1D4A1E4BC4E9020580
:103D9000C4E90400C4E9060020622046C4E9002307
:103DA00001F0E8FC014608B172B6FEE7204602F0D9
:103DB000DBF8014608B172B6FEE7204602F000F9D2
:103DC00008B172B6FEE704F006F904F003F905F055
:103DD0005DFFFFF711FD05F06FFFFEE740CC04200B
:103DE00000140D42F4CD04200030024068CD0420C0
:103DF00000B00240C8CD0420001403409CCC042035
:103E000000580040FF7BF0000268034B9A4201D14A
:103E100003F0BABC704700BF0010004072B6FEE766
:103E2000FEE7FEE7FEE7FEE7FEE77047202002F030
:103E300005BC4FF4005002F001BC0000014803F043
:103E4000BFBA00BF9CCB0420014801F08EBF00BF69
:103E5000F0CC0420014803F0C1B900BF68CD0420B4
:103E600007B50C4BD3F8942042F00402C3F8942019
:103E7000D3F8943003F004030193019B00F0D6FBC8
:103E800000220F216FF0010003B05DF804EB02F097
:103E9000DBB800BF000C02460268094B82B09A42B0
:103EA0000CD1084BD3F8882042F48052C3F8882004
:103EB000D3F8883003F480530193019B02B070471C
:103EC00000300240000C02460268094B82B09A4260
:103ED0000CD1084BD3F8882042F08042C3F88820E8
:103EE000D3F8883003F080430193019B02B0704700
:103EF00000140340000C024607B50F4B02689A42BB
:103F000017D10E4B0721D3F88820762042F4802267
:103F1000C3F88820D3F88830002203F4802301936B
:103F2000019B02F091F8762003B05DF804EB02F0FB
:103F3000BBB803B05DF804FB00B00240000C0246C1
:103F400010B50446B8B01422002103A820F015FED5
:103F5000C022002108A820F010FE22681A4B9A42C5
:103F60002FD18022002308A8CDE9082303F004FD07
:103F700008B1FFF753FF154C0322D4F88C301448D6
:103F800043F02003C4F88C30D4F88C3003A903F03C
:103F900020030193019B1223CDE903230023CDE9E4
:103FA00005330423079302F02BFAD4F89C3043F432
:103FB0008003C4F89C30D4F89C3003F4800302934F
:103FC000029B38B010BD00BF00580040000C0246F4
:103FD000001402421422F0B50446BBB000210DEBE0
:103FE000020020F0CAFDC02200210AA820F0C5FD71
:103FF0002268404B9A427AD14FF080620023CDE98B
:104000000A234FF440130422852135930223CDE97E
:104010000C32CDE90E13CDE910234FF400330AA87A
:10402000149303F0A9FC08B1FFF7F8FE324B022706
:10403000D3F88C20002642F40012C3F88C20D3F869
:104040008C20032502F400120092009AD3F89020ED
:104050000A2442F01002C3F89020D3F89020274899
:1040600002F010020192019AD3F88C2005A942F0C7
:104070000102C3F88C20D3F88C2002F001020292D6
:10408000029AD3F88C2042F00202C3F88C20D3F8B5
:104090008C2002F002020392039AD3F88C2042F0A3
:1040A0001002C3F88C20D3F88C30CDE9076503F0FB
:1040B00010030493049B04230994CDE9053702F00F
:1040C0009FF940F201430E4805A9CDE90537CDE936
:1040D0000765099402F094F94FF45043094805A983
:1040E000CDE90537CDE90765099402F089F93BB0C0
:1040F000F0BD00BF00140D42000C02460000024259
:1041000000040242001002420023F0B587B003937E
:10411000154B1E6836BB01221A60144B0227D3F8D8
:104120009020032542F00102C3F89020D3F890308C
:104130000C2403F001030093009B4FF4F2630C483E
:1041400001A9CDE90137CDE9045402F059F94CF247
:10415000B303084801A9CDE90137CDE9036505940A
:1041600002F04EF907B0F0BD18CE0420000C024654
:1041700000100242000C024270B594B00546502275
:104180000021684620F0F9FC01244FF40056662314
:1041900041F288326946284603940896029302F059
:1041A000D7FBF8B99923CDE90000CDE91200CDE99C
:1041B0000A00CDE90C00CDE90340CDE906000590E9
:1041C000099010900E9011900F9041F2883269463C
:1041D00028460896029302F0BBFB003818BF012066
:1041E00014B070BD2046FBE7062270B50023012500
:1041F0004FF400569AB0089206A941F2883204465C
:10420000CDE90633CDE91833CDE91033CDE91233CA
:10421000CDE90953CDE90C330B930F9316930E960A
:1042200014931793159302F093FB10B101201AB069
:1042300070BD052308934FF08073CDE90600CDE9EA
:104240001800CDE91000CDE91200CDE90950CDE903
:104250000C000B900F901690179041F28832204678
:1042600006A90E961493159502F072FB0028DDD175
:1042700002231022CDE901334FF480030390CDE9EE
:104280000432204641F2883201A902F04BFC00388A
:1042900018BF0120CBE74FF4005230B59BB00E920F
:1042A000052208924FF0807200230124149206A97F
:1042B00041F288320546CDE90633CDE91833CDE920
:1042C0001033CDE91233CDE90943CDE90C330B931B
:1042D0000F9316931793159402F03AFB90B94FF48D
:1042E00080031022CDE90104CDE90432039041F2AC
:1042F0008832284601A902F015FC003818BF0120B9
:104300001BB030BD2046FBE7F0B597B004464C2209
:10431000002103A820F031FC0023CDE90033EB237A
:1043200004934FF4407301254FF400574FF040764B
:104330000993062341F28832204602A90295059589
:104340000A971096139302F003FB10B1012017B0E7
:10435000F0BD0223CDE90230322304934FF4807381
:10436000CDE91400CDE90C00CDE90E00CDE90550F2
:10437000CDE9080307900B9012901390119041F231
:104380008832204602A90A97109602F0E1FA002826
:10439000DCD100906946204602F018FC003818BFB6
:1043A0000120D4E770B594B01446054650220E465D
:1043B0006846002120F0E1FB4FF4005201230892EF
:1043C0004FF080729C42CDE90E23039306D0022C5D
:1043D00018D0032C18D0012014B070BD052341F271
:1043E000883269462846029302F0B2FA0028F2D1D8
:1043F00041F288323146284602F03DFB003818BFB2
:104400000120E9E73523EAE71523E8E770B55026F0
:1044100096B004468DF8071015460021324602A8D2
:1044200020F0ABFB012305934FF400530A930423C0
:1044300041F28832204602A9049302F089FA10B1B1
:10444000012016B070BD2046FFF725FF0028F7D1E8
:1044500041F28832204602A9049602F079FA002837
:10446000EED12046FFF717FF0028E9D1012D04D037
:10447000022D25D0032DE3D111254FF080720123A9
:104480002046CDE910230495FFF7AEFE0028D7D1D2
:1044900041F28832204602A902F05AFA0028CFD110
:1044A00041F2883220460DF1070102F0A0FA0028FF
:1044B000C6D12046FFF7EFFE003818BF0120C0E745
:1044C0003125DAE7002373B501220DF10501044619
:1044D0008DF805308DF806308DF80730FFF762FF54
:1044E00010B1012002B070BD022220460DF106017C
:1044F000FFF758FF0028F4D1032220460DF10701F1
:10450000FFF750FF0028ECD1012220469DF805104E
:104510009DF806609DF80750FFF778FF0028E0D16E
:104520000222204646EA0201FFF770FF0028D8D198
:104530000322204605F09F01FFF768FF003818BFEF
:104540000120CFE71D4BDA6B02F44032824208D1E2
:10455000B2F5803F82BFDA6842F48022DA60002040
:104560007047DA68B0F5803F22F4E02242EA0002A8
:1045700088BF42F48022DA604FF47A72104B322105
:104580001B68B3FBF2F34B43B3FBF2F301331A4660
:104590000A49C868000404D40AB903207047013AE4
:1045A000F7E7002AF9D0054AD16B090403D4002BA0
:1045B000F3D0013BF8E7002BD1D1EEE7000802462B
:1045C00010B00420024BD86B00F44030704700BF9D
:1045D000000802464FF47A72124B32211B68B3FB7B
:1045E000F2F34B43B3FBF2F30F4A0133916850B936
:1045F00021F002019160D16B88070ED50BB9032021
:104600007047013BF7E741F002019160D16B8907E8
:1046100003D4002BF3D0013BF8E7002BEFD00020B0
:10462000704700BF10B0042000080246024A136918
:1046300043F000531361704700080246024AD36AF0
:1046400043F00103D36270470008024637B52B4D93
:104650000446D5F894305B0718D5FFF7B3FF20F474
:104660008033B3F5003F26D1B4F1805F2CBF00202A
:104670000120234A136823F00F03034313601368D8
:1046800003F00F03181A18BF01201BE0D5F894306F
:1046900043F00403C5F89430D5F8943003F00403D4
:1046A0000193019BFFF78EFFD5F8943023F00403AC
:1046B000C5F89430D3E7B4F1805F05D2B0F5803F00
:1046C00015D0012003B030BDB4F1005F06D980B928
:1046D000B4F1405F8CBF00200120CAE7B4F1805FD5
:1046E00009D1B0F5803F0CBF01200220C1E70320B3
:1046F000BFE70020BDE70120BBE700BF000C02467A
:104700000020024010B5384AD369916A13F00C03B7
:1047100005D00C2B36D101F00301012932D191686B
:10472000090254BFD2F8F4209268304954BFC2F352
:104730000332120F51F82200002B51D02A4ADFED2C
:104740002C5A916A936A946AC3F30323013306EEE9
:10475000903A936BC4F30014C3F3CC03634307EEA6
:10476000903A01F003010229B8EEE77AF8EEE66A22
:10477000B7EE006A14D0032912D007EE900AF8EEC3
:10478000677A0FE0D26902F00C02042A06D0082BE7
:1047900027D000200C2B23D10020CFE71548F9E7C4
:1047A000DFED157A536B87EEA65AC3F3080307EEC5
:1047B000903AF8EEE77AE7EE257A0B4B77EE867AB9
:1047C0005B6B67EE857AC3F30663013307EE103A3D
:1047D000F8EEC76A87EEA67AFCEEC77A17EE900A63
:1047E00010BD0448FCE700BF000C0246806E0208C2
:1047F000000000390024F4000024744B2DE9F3413B
:104800000D46044618B9012002B0BDE8F081994A6E
:10481000136803F00F038B4275D32368DA067ED446
:1048200023681B070DD5944A2169136A1B0903F0FD
:104830007003994281BF136A23F4E06343EA0113D2
:10484000136223685F070BD58B4AE168136A03F094
:104850007003994281BF136A23F070030B43136204
:1048600023689E070BD5844AA168136A03F00F03DF
:10487000994281BF136A23F00F030B43136223682D
:10488000D80759D42368990700F1DB80794A136867
:1048900003F00F03AB4200F2E1802368590700F1F7
:1048A000F58023681A070DD5734A2169136A1B091D
:1048B00003F0700399423FBF136A23F4E06343EAB5
:1048C000011313622368DB060BD56B4A6169536AD7
:1048D00003F0700399423FBF536A23F070030B4308
:1048E0005362FFF70FFF644B644A1B6A03F00F0328
:1048F000D35CD840624B1860624B186802B0BDE8C8
:10490000F041FEF795BF136823F00F030B431360CC
:10491000136803F00F038B427FF475AF7DE7564AAF
:104920006169536A03F07003994281BF536A23F0AF
:1049300070030B43536273E762684F4B032A4ED1F7
:10494000D3F8942052073DD40127D3F8942042F0A5
:104950000402C3F89420D3F8943003F004030193C5
:10496000019B02F01DFFDFF820810646D8F80C30CD
:104970005B0329D4404B2FB1D3F8942022F00402DA
:10498000C3F894201B6813F0007F3FF43CAF3A4E0D
:104990006268F36941F2883823F003031343F3613B
:1049A00002F0FEFE63680746032B25D1F36903F08E
:1049B0000C030C2B3FF466AF02F0F2FEC01B404527
:1049C000F4D90AE00027CCE7D8F80C305804D1D449
:1049D00002F0E6FE801B0228F6D9032014E7022A23
:1049E0001B6802D113F4003FCFE712B913F0040F94
:1049F000CBE713F4806FC8E7022B0BD1F36903F008
:104A00000C03082B3FF43EAF02F0CAFEC01B40452A
:104A1000F4D9E2E77BB9F36913F00C0F3FF432AF3E
:104A200002F0BEFEC01B4045F5D9D6E702F0B8FE45
:104A3000C01B4045D1D8F36903F00C03042BF5D11A
:104A400020E70D4AA168136A03F00F0399423FBFA4
:104A5000136A23F00F030B43136217E7136823F065
:104A60000F032B431360136803F00F03AB427FF473
:104A7000CAAE12E700200240000C0246C86E0208CF
:104A800010B0042018B0042000080246064AE1686D
:104A9000136A03F0700399423FBF136A23F0700357
:104AA0000B431362FDE600BF000C024608B5FFF79A
:104AB00029FE054B054A1B6A03F00F03D35CD8405F
:104AC000034B186008BD00BF000C0246C86E020808
:104AD00010B004202DE9FF41044600283AD09E4B37
:104AE000DE699F6A036806F00C06D80607F0030724
:104AF00040F1A180E3691EB10C2E7BD1012F79D149
:104B000043B3954D606AAB68190256BFD5F8F430CF
:104B1000AB681B0403F0704398423AD9B6B1AB6856
:104B200043F40003AB60AB68626A23F07043134345
:104B3000AB60636A226AB3F1404F0DD2002B1BDADF
:104B4000EB6823F4787343EA421309E0FFF77EFD34
:104B50000028E4D001200CE0EB6823F01F0313438E
:104B6000EB60FFF7A3FF7D4B1868FEF761FE00289E
:104B700061D004B0BDE8F081B3F1804FEB682BBF8A
:104B800023F4F84323F4782343EA822343EAC2332D
:104B9000E6E7AB6843F40003AB60AB68626A23F0FE
:104BA00070431343AB60636A226AB3F1404F0CD386
:104BB000EB6823F01F031343EB60002ED1D1606A32
:104BC000FFF744FD0028CCD0C4E7002B05DAEB68E2
:104BD00023F4787343EA4213EEE7B3F1804FEB68B6
:104BE0002BBF23F4F84323F4782343EA822343EAD8
:104BF000C233E1E7584D002B77D02B6843F0010317
:104C00002B6002F0CDFD80462B685A074FD5AB686C
:104C100043F40003AB60AB68626A23F07043134354
:104C2000AB60636A226AB3F1404F48D3EB6823F06C
:104C30001F031343EB602368DD0767D423689807DD
:104C400000F1C2802368180740F13D81424BD3F840
:104C50009420510700F1F6800127D3F8942042F008
:104C60000402C3F89420D3F8943003F004030193B2
:104C7000019B3B4DAB6ADA0740F1E6806369364D34
:104C8000002B40F0F280D5F8F03023F0A053C5F8A7
:104C9000F03002F085FD0646D5F8F0301B0140F1FA
:104CA0000A8102F07DFD801B0528F5D905E002F0A0
:104CB00077FDA0EB08000228A6D9032059E7002BB6
:104CC00005DAEB6823F4787343EA4213B2E7B3F1F1
:104CD000804FEB6804D323F4F84343EA8223A9E727
:104CE00023F4782343EAC233A4E72B6823F00103BB
:104CF0002B6002F055FD80462B685B079BD502F0C8
:104D00004FFDA0EB08000228F6D9D6E7082E62680E
:104D100003D00C2E04D1032F02D1002A8ED119E723
:104D2000B2F5803F0C4B1DD11A6842F480321A60F4
:104D30006368002B38D002F033FD0546DFF8188099
:104D4000D8F8003099033FF579AF02F029FD401BF8
:104D50006428F5D9B1E700BF000C024618B0042062
:104D600000080246B2F5A02F08D11A6842F480224A
:104D70001A601A6822F480121A60D5E7B2F5A81FEB
:104D80001A6806D142F480221A601A6842F480122E
:104D9000F2E722F480321A601A6822F480221A6044
:104DA0001A6822F48012C2E702F0FAFC0546DFF826
:104DB000D482D8F800309A037FF540AF02F0F0FCBF
:104DC000401B6428F5D978E7042EE36803D00C2E45
:104DD0000DD1022F0BD1002B3FF4BCAEA94A2169A3
:104DE000136923F4F81343EA014313612AE7A54D3D
:104DF000BBB12B6843F480732B6002F0D1FC0646F4
:104E00002B685B0507D52B69226923F4F81343EA65
:104E100002432B6116E702F0C3FC801B0228EFD986
:104E20004BE72B6823F480732B6002F0B9FC064635
:104E30002B685F057FF506AF02F0B2FC801B0228ED
:104E4000F6D93AE7002714E7AB6A43F00103AB62F7
:104E500002F0A6FC0646AB6ADB073FF50FAF02F097
:104E60009FFC801B0228F6D927E7D5F8F030A1690E
:104E700003F08052914210D003F04062B2F1006F13
:104E80003FF468AE580148D47E4AA169D2F8F030A8
:104E900023F080530B43C2F8F0307A4DD5F8F03050
:104EA00043F08063C5F8F03002F07AFC0646D5F88E
:104EB000F0301A0144D537B1724AD2F8943023F059
:104EC0000403C2F8943023685D0740F186806D4B7F
:104ED000D3F89420500739D40127D3F8942042F016
:104EE0000402C3F89420D3F8943003F0040302932F
:104EF000029B654DAB6AD9072AD5A268614B12F0B7
:104F0000010F35D1D3F8F02022F00102C3F8F020D0
:104F1000D3F8F02022F0040237E0D5F8F03023F087
:104F2000A053C5F8F03002F03BFC0646D5F8F0304F
:104F30001901A9D502F034FC801B0528F6D9BCE67E
:104F400002F02EFC801B0528B1D9B6E60027D0E779
:104F5000AB6A43F00103AB6202F022FC0646AB6A87
:104F6000DA07CAD402F01CFC801B0228F7D9A4E699
:104F700012F0040FD3F8F0201EBF42F00402C3F871
:104F8000F020D3F8F02042F00102C3F8F020A3682B
:104F9000002B4FD002F004FC41F288380546394E10
:104FA000D6F8F0309B0728D5A36813F0800FD6F809
:104FB000F0302ED041F2883843F08003C6F8F0304C
:104FC000304ED6F8F03018051DD537B12D4AD2F83D
:104FD000943023F00403C2F894302368990655D422
:104FE00023681A0675D42368580600F19780A16BD0
:104FF000002940F0E3800020BBE502F0D1FB401B1C
:105000004045CDD959E602F0CBFB401B4045D8D9ED
:1050100053E641F2883823F08003C6F8F030194E89
:10502000D6F8F0301905D0D502F0BAFB401B404548
:10503000F6D942E602F0B4FB41F288380546114E3B
:10504000D6F8F0309A0716D4D6F8F0301B06BCD547
:1050500041F28838D6F8F03023F08003C6F8F030FB
:10506000084ED6F8F0301805AFD502F099FB401B7A
:105070004045F6D921E602F093FB401B4045DFD9BD
:105080001BE600BF000C024600080246E36A9C4D86
:105090007BB12B6843F480532B6002F081FB064602
:1050A0002B689B049CD402F07BFB801B0228F7D961
:1050B00003E62B6823F480532B6002F071FB064655
:1050C0002B689F048CD502F06BFB801B0228F7D95C
:1050D000F3E5236B8A4D83B12B6843F480432B6047
:1050E00002F05EFB06462B6819043FF57CAF02F028
:1050F00057FB801B0228F6D9DFE52B6823F4804399
:105100002B6002F04DFB06462B681A047FF56BAF4F
:1051100002F046FB801B0228F6D9CEE5636B784D82
:10512000002B3AD0AB6843F40003AB60AB68A26AD3
:1051300023F070631343AB60636A226AB3F1404F9C
:1051400016D3EB6823F01F031343EB606C4D2B6801
:1051500043F010032B6002F023FB06462B689B06EE
:105160003FF545AF02F01CFB801B0228F6D9A4E5F1
:10517000002B05DAEB6823F4787343EA4213E4E783
:10518000B3F1804FEB682BBF23F4F84323F478236B
:1051900043EA822343EAC233D7E72B6823F01003A4
:1051A0002B6002F0FDFA06462B689F067FF51FAFC5
:1051B00002F0F6FA801B0228F6D97EE5504DEB6925
:1051C00003F00C030C2B00F0A1802B68022923F0C4
:1051D00080732B6040F0818002F0E2FA0646296875
:1051E00011F000716DD1D5F894305E070CD4012117
:1051F000D5F8943043F00403C5F89430D5F89430D2
:1052000003F004030393039B3E4DEE68EB6823F425
:105210008023EB603A4B676C986AE26B20F47F4026
:105220003A4320F003000243206C013842EA002296
:105230009A62A26C5F6B3448013A3840C2F30802AC
:105240000243E06C0138400280B20243206D013815
:10525000000400F4FE000243606D0138000600F017
:10526000FE4002435A639A6A22F010029A62E26D8B
:10527000D2009A639A6A42F010029A629A6AA06D0A
:1052800022F00C0202439A62700342BFEA6842F4C1
:105290008022EA6029B1D3F8942022F00402C3F8F6
:1052A00094201A68164C42F080721A6002F078FA64
:1052B000054623689A010AD5A36A43F48023A362B2
:1052C00099E602F06DFA801B022888D9F5E402F015
:1052D00067FA401B0228ECD9EFE402F061FA0446B9
:1052E0002B689B0106D4AB6A23F4E02323F003036D
:1052F000AB6280E602F054FA001B0228F0D9DCE42D
:10530000000C024600080246000080800129AA6ABB
:105310006B6B3FF41FACE06B02F0030181427FF442
:1053200019AC216CC2F30320013988427FF412AC1E
:10533000616C02F470428A427FF40CACA26CC3F33D
:105340000801013A91427FF405ACE26CC3F34621B7
:10535000013A91427FF4FEAB226DC3F30641013A5C
:1053600091427FF4F7AB626DC3F30663013A934257
:105370007FF4F0AB0D4BE16D9A6BC2F3CC028A4225
:105380003FF439AE9A6A22F010029A6202F008FAEB
:10539000054602F005FAA842FBD0E26D034BD200AD
:1053A0009A639A6A42F010029A6224E6000C02465E
:1053B00008B5FFF77BFB044B044A1B6AC3F30213D7
:1053C000D35CD84008BD00BF000C0246C06E020886
:1053D0001F2303600D4BDA6902F0030242601A6A70
:1053E00002F00F0282601A6A02F07002C2601A6A4A
:1053F000120902F0700202615B6A03F070034361FC
:10540000034B1B6803F00F030B607047000C024650
:105410000020024070B50E461546044650B390F881
:10542000513003F0FF021BB980F85020FEF76CFEEC
:1054300004F10801206800F0E5FE3146A26820680A
:1054400000F048FF2946E36AA268606800F06CFF3C
:105450002268A168002052F8213043F0010342F88D
:105460002130054A136843F000431360012384F898
:10547000513070BD0120FCE700040D42B0B1A9B16C
:1054800090F85430012B0CD1D1E9001300680B4384
:10549000026C22F0406222F4605213430364002045
:1054A000704740238365002380F84C30012070470B
:1054B00003689A69910744BF00229A6203689A6957
:1054C000D2075EBF9A6942F001029A6170470000FC
:1054D00030B5039D04682B4343EA0243064A6068E3
:1054E000C1F309010B4342EA555223F0004320EA7D
:1054F00002000343636030BDFF63FF032DE9F04109
:10550000036805469C690F4614F01004164672D0D5
:1055100000241022A046DA612B689A69900664D4B0
:10552000B8F1000F38D0012044F004042A689369D0
:10553000D90541BF4FF48071012044F00104D161CD
:105540005A0506D54FF4806101202A6844F008040A
:10555000D1619B0551D54FF400722B6844F00204D1
:10556000DA612846FFF7A4FF2A680120536823F078
:10557000FF7323F48B3323F4FF7323F00103536091
:105580006B6C23436B64202385F84130002385F83E
:10559000423085F8403032E07A1CBED002F000F98B
:1055A000801BB84201D8002FB6D12B68596895F8F6
:1055B00042209869D2B200040AD5490408D4202AAE
:1055C00006D05A6842F480425A6002F0E9F8064672
:1055D0002B689B699B069FD402F0E2F8801B192878
:1055E000F6D920244FF0010896E7B8F1000F9AD1C0
:1055F0002022DA6197E7204698E70028B1D1BDE87C
:10560000F0812DE9F04104460F4616461D46DDF8AF
:10561000188023689B6937EA03030CBF012300232A
:10562000B34201D0002025E0424629462046FFF73C
:1056300065FFF0B96B1CECD002F0B2F8A0EB0800EB
:10564000A84201D8002DE4D123689B6937EA0303FF
:105650000CBF01230023B342DBD1636C43F0200372
:105660006364202384F84130002384F8423084F8B6
:1056700040300120BDE8F08170B504460D46164665
:1056800023689B699B0601D500201DE03246294610
:105690002046FFF733FFB0B902F082F8801BA84222
:1056A00001D8002DECD123689B6913F02003E7D1CA
:1056B000626C84F8403042F020026264202284F858
:1056C000412084F84230012070BD00002DE9F843EC
:1056D00004460E46174600254FF01008DFF890905C
:1056E00023689B695B0700D415B12846BDE8F883A1
:1056F0003A4631462046FFF701FF236805469A697E
:1057000090060CD4003D18BF012502F049F8C01BDB
:10571000B04201D8002EE3D1E5B10125E0E7ADB9F3
:105720009A699A69D10613D5C3F81C8004232022F4
:1057300063642368DA6121684B6803EA09034B60FC
:1057400084F8412084F8405084F842500125DCE779
:105750006564DAE723689B695A07C1D4636C84F8EF
:10576000405043F020036364202384F84130D4E7A1
:1057700000E800FE10B50446002855D090F84130EE
:1057800003F0FF021BB980F84020FEF7D9FB242369
:10579000226884F841301368002023F0010313606D
:1057A000D4E9002323F0706313612268936823F423
:1057B00000439360E3682268012BA3680CBF43F4A5
:1057C000004343F4044393602368E268022A5A6862
:1057D0000CBF42F4006222F400625A6022685368EF
:1057E00043F0007343F4004353602268D36823F40A
:1057F0000043D360D4E904310B43A169226843EA32
:105800000123D3602268D4E907310B431360226877
:10581000136843F0010313602023606484F841306F
:10582000206384F8420010BD0120FCE72DE9F34716
:10583000984690F841300446202B0E4691460A9F28
:1058400040F0888090F84030012B00F083804FF0CA
:10585000010A80F840A001F0A3FF1923054600903B
:1058600052464FF400412046FFF7CBFE18B101200D
:1058700002B0BDE8F087222384F84130102384F879
:1058800042306064A4F82A80638DC4F824909BB2EF
:10589000FF2B6063304B27D9FF22228500934FF006
:1058A000807331462046FFF713FE638D2A469BB274
:1058B0003946204603BBFFF7DFFE0028D7D1202260
:1058C0002368DA6121684B6823F0FF7323F48B337C
:1058D00023F4FF7323F001034B6084F8412084F824
:1058E000400084F84200C3E7628D92B222850093A3
:1058F0004FF00073D2B2D4E7FFF7E8FE0028B6D12C
:1059000023685A6A636A1A70636A228D013363627C
:10591000638D013A013B9BB26385638D92B29BB26A
:105920002285002BC1D0002ABFD13B4680212046D2
:105930000095FFF766FE002899D1638D9BB2FF2B7F
:1059400003D9FF2222850090A9E7628D92B22285B9
:105950000090CDE702208BE70024008038B5044694
:1059600001F01EFF0546002C00F0B381002394F8DF
:10597000541084F84C30226801F0FF0321B9C4E9C7
:105980001833C4E91A332367022384F85430536967
:1059900043F00603536122685369DB0700F18E81EF
:1059A0005369216A23F443030B435361E36962693A
:1059B000AE4D1A432369AE481A43A3691A432368BC
:1059C000AB4200F08780AB498B4200F0838001F14D
:1059D000704180318B427DD001F180518B4279D072
:1059E00001F1704180318B4274D001F180518B42C2
:1059F00070D001F1704180318B426BD001F1805148
:105A00008B4267D001F1704180318B4262D001F14D
:105A100080518B425ED001F1704180318B4259D070
:105A200001F180518B4255D001F1704180318B42A0
:105A300050D001F180518B424CD001F17041803146
:105A40008B4247D001F180518B4243D001F170412C
:105A500080318B423ED001F180518B423AD001F12E
:105A6000704180318B4235D001F180518B4231D071
:105A700001F1704180318B422CD001F180518B4279
:105A800028D001F1704180318B4223D001F1805147
:105A90008B421FD083421DD080318B421AD001F13E
:105AA000704180318B4215D001F180518B4211D071
:105AB00001F1704180318B420CD001F180518B4259
:105AC00008D001F1704180318B4203D001F1805147
:105AD0008B420DD1A16A0139090501F07C71114396
